:100000000C9496000C94A6040C947F040C94BE00EF
:100010000C94BE000C94BE000C94BE000C94BE0068
:100020000C94BE000C94BE000C94BE000C94BE0058
:100030000C94BE000C94BE000C94BE000C94BE0048
:100040000C9435040C94BE000C94BE000C94BE00BD
:100050000C94BE000C94E8050C94BE000C94BE00F9
:100060000C94CD040C94BE000C94BE000C94BE0005
:100070000C94BE000C94BE000C94BE000C94BE0008
:100080000C94BE000C94BE000C94BE000C94BE00F8
:100090000C94BE000C94BE000C94BE000C94BE00E8
:1000A0000C94BE000C94BE000C94BE000C94BE00D8
:1000B0000C94BE0000000000250028002B002E003C
:1000C0000A0D0E09000302000004050800000000EC
:1000D00000000000000000000000000000000024FC
:1000E0000027002A002D0001020408102040800192
:1000F0000204081020010204081020408040010280
:100100000408000000002300260029002C0004043D
:1001100004040404040402020202020203030303AF
:1001200003030202030505050500570611241FBE3F
:10013000CFEFD8E0DEBFCDBF11E0A0E0B1E0E6EB4D
:10014000F7E102C005900D92A438B107D9F722E07B
:10015000A4E8B1E001C01D92A23BB207E1F710E0B4
:10016000C6E9D0E004C02197FE010E94D30BC53937
:10017000D107C9F70E94DF070C94D90B0C9400003B
:100180002091280281E0213208F044C080910402CD
:100190008111FCCF8091270292E09093040291E0BC
:1001A000909303029FEF909302021092010220931A
:1001B0000002A7E0B2E0E0EEF1E090E0291331C0E8
:1001C0001092DF019091DF01880F892B8093DF016E
:1001D0008091DE01813049F51092DE018091DF01CE
:1001E0008093BB008091BC0083FDF8CF85EC8093A9
:1001F000BC00809104028230E1F3809102028F3FC3
:10020000B1F0809102028032A1F08091020280332D
:1002100091F084E0109206021092280210920502DA
:1002200008953D9131939F5FC9CF85EEE0CF80E087
:10023000F1CF82E0EFCF83E0EDCF82508D3008F038
:100240003DC0E82FF0E0E95DFE4F0C94D30B3E017A
:10025000420134013A015E015E0145014B014F014B
:1002600055015E0159015F01809180008F77809375
:1002700080000895809180008F7DF9CF84B58F77BD
:1002800084BD089584B58F7DFBCF8091B0008F77BA
:100290008093B00008958091B0008F7DF9CF809158
:1002A00090008F77809390000895809190008F7DCB
:1002B000F9CF8091A0008F778093A000089580915E
:1002C000A0008F7DF9CFCF93DF93282F30E0F90185
:1002D000E054FF4F8491F901E951FF4FD491F901A6
:1002E000E25FFE4FC491CC23A1F081110E941D0159
:1002F000EC2FF0E0EE0FFF1FEE5FFE4FA591B491E3
:10030000EC91ED2381E090E009F480E0DF91CF9162
:10031000089580E090E0FACF1F93CF93DF93282FCA
:1003200030E0F901E054FF4F8491F901E951FF4FAA
:10033000D491F901E25FFE4FC491CC23A9F0162FAE
:1003400081110E941D01EC2FF0E0EE0FFF1FEC5415
:10035000FF4FA591B4918FB7F894EC91111108C09B
:10036000D095DE23DC938FBFDF91CF911F9108954D
:10037000DE2BF8CF61E080915F020C948C013FB7D7
:10038000F8948091C8019091C901A091CA01B091DF
:10039000CB0126B5A89B05C02F3F19F00196A11DE2
:1003A000B11D3FBFBA2FA92F982F8827BC01CD01BF
:1003B000620F711D811D911D43E0660F771F881F1D
:1003C000991F4A95D1F708958F929F92AF92BF924D
:1003D000CF92DF92EF92FF926B017C010E94BF01EE
:1003E0004B015C01C114D104E104F104B9F00E9495
:1003F000BF01681979098A099B09683E7340810524
:10040000910580F321E0C21AD108E108F10888EED5
:10041000880E83E0981EA11CB11CE4CFFF90EF90E2
:10042000DF90CF90BF90AF909F908F9008950895E8
:100430008EBD00000DB407FEFDCF8EB50895CF939D
:10044000C82F90915702809158029CBD8DBD60E0ED
:1004500080915F020E948C018C2F0E941802C25072
:10046000C230B0F480915B0290915C02A0915D0279
:10047000B0915E020197A140B10518F080E00E94A2
:10048000180280E00E94180280E0CF910C941802BC
:10049000CF91089585ED8093BC008091BC0084FDD0
:1004A000FCCF109204020895613298F42091040266
:1004B000243089F46093A401282FA4E8B1E0FC0162
:1004C0008E2F821B861710F080E0089581918D9306
:1004D000F7CF81E0089582E00895089581E090E0EB
:1004E0003091CD012091CC01321710F490E080E0E2
:1004F00091958195910908958091CD019091CC01BC
:10050000891730F48F5F8093CD0190E080E00895EB
:100510008FEF9FEF08958091CC019091CD01891BC1
:10052000990B0895CF92DF92EF92FF920F931F9352
:10053000CF93DF937C01CB018A0120910502222316
:1005400089F0EB016B01C40ED51ECC15DD0569F0F9
:100550006991D701ED91FC910190F081E02DC701E7
:100560000995F3CF642F0E945402C801DF91CF9107
:100570001F910F91FF90EF90DF90CF900895CF9350
:10058000DF931F92CDB7DEB7698320910502222346
:10059000F9F020912802203258F021E030E0FC01EF
:1005A0003383228390E080E00F90DF91CF91089514
:1005B00080910602E82FF0E0E95FFD4F998190837A
:1005C0008F5F809306028093280281E090E0ECCF59
:1005D00061E0CE0101960E945402F7CF682F89E2B4
:1005E00092E00C94BF021F93CF93DF93EC01162F80
:1005F0008E8191E09093050280932702109206026B
:100600001092280260E089E292E00E94BF02612F0E
:1006100089E292E00E94BF020E94C0008C876F8135
:100620007885072E000C880B990BDF91CF911F91D5
:100630000C94E401FC012385222319F068E00C945A
:10064000F3020895EF92FF920F931F93CF93DF93DE
:10065000FC012385222319F17A018B01EC018681AB
:1006600091E0909305028093270210920602109267
:10067000280260E489E292E00E94BF02A701B8016B
:1006800089E292E00E9492020E94C0008C876985F4
:100690007A85072E000C880B990B0E94E401DF91EC
:1006A000CF911F910F91FF90EF9008951F93CF93DB
:1006B000DF93FC012385222399F0162FEC016A3089
:1006C00099F484818150990BFC01EE0FFF1FE80F14
:1006D000F91FE45FFE4F61816058CE010E94F30272
:1006E000DF91CF911F910895868191E0909305024B
:1006F00080932702109206021092280260E489E299
:1007000092E00E94BF02612F89E292E00E94BF0244
:100710000E94C0008C8769857A85072E000C880BA3
:10072000990B0E94E401DCCFCF92DF92EF92FF920F
:10073000CF93DF93EC018A818823A1F08C819D8186
:10074000AE81BF816A017B01C81AD90AEA0AFB0A95
:100750008B8190E0B0E0A0E0C816D906EA06FB065F
:1007600008F01A828A81811117C06A017B01888191
:100770000E9463019981891779F091E09A838983B6
:100780008C819D81AE81BF8188879987AA87BB872D
:10079000CC82DD82EE82FF82DF91CF91FF90EF90DD
:1007A000DF90CF900895DC01ED91FD918081ED9176
:1007B000FD919081ED91FD916C9163708E2309F014
:1007C00064609F2309F06860E0EFF3E0E60FF11D3D
:1007D000659565956D936D917D918D919D91099430
:1007E00023C01AC012C016C010C01EC009C014C059
:1007F00013C006C019C009C00DC007C00DC014C089
:1008000062507040804090400BC06150704080400A
:10081000904006C06E5F01C06F5F7F4F8F4F9F4F4C
:100820009E938E937E936E9308958091360290915D
:1008300037020C94D30380913802909139020C94C2
:10084000D303CF93DF93EC018B85823060F4F8946F
:10085000CE010E94D3036F81788589859A8578942B
:10086000DF91CF910895F894F6CF1F920F920FB6B3
:100870000F9211242F933F938F939F93AF93BF9326
:100880008091D6019091D701A091D801B091D90162
:100890003091C70126E0230F2D3758F50296A11D90
:1008A000B11D2093C7018093D6019093D701A093E7
:1008B000D801B093D9018091C8019091C901A0914C
:1008C000CA01B091CB010196A11DB11D8093C80151
:1008D0009093C901A093CA01B093CB01BF91AF918E
:1008E0009F918F913F912F910F900FBE0F901F906E
:1008F000189529E8230F0396A11DB11DD2CF1F9291
:100900000F920FB60F9211242F933F934F935F9343
:100910006F937F938F939F93AF93BF93EF93FF93C7
:10092000E0910201F09103010995FF91EF91BF91D0
:10093000AF919F918F917F916F915F914F913F9177
:100940002F910F900FBE0F901F9018951F920F922E
:100950000FB60F9211242F933F934F935F936F9392
:100960007F938F939F93AF93BF93EF93FF93E09108
:100970000001F09101010995FF91EF91BF91AF91B5
:100980009F918F917F916F915F914F913F912F91A7
:100990000F900FBE0F901F9018951F920F920FB6D9
:1009A0000F9211242F933F934F935F936F937F93F5
:1009B0008F939F93AF93BF93EF93FF938091B90071
:1009C000887F803609F44AC0F0F5883209F4A5C062
:1009D00018F5803109F499C0B8F4882309F4F5C0FA
:1009E000883009F492C0FF91EF91BF91AF919F9130
:1009F0008F917F916F915F914F913F912F910F90C8
:100A00000FBE0F901F901895883109F486C0803270
:100A100051F78093020214C0803409F49BC040F463
:100A20008033B9F38833F9F68093020285ECAEC0C7
:100A3000803509F483C0883509F494C0883499F668
:100A40000E944A02D0CF883909F48AC038F5883725
:100A500029F050F4883611F0803729F683E080932E
:100A600004021092C60155C0883809F479C0803953
:100A700019F0803809F0B7CF8091C601803208F0B4
:100A80006FC0E091C60181E08E0F8093C601809116
:100A9000BB00F0E0EA55FE4F80833BC0803B39F05D
:100AA000D0F4803A09F477C0883A09F09CCF84E00A
:100AB000809304021092A5011092A401F0E0E0E0FE
:100AC00009958091A40181110FC081E08093A40158
:100AD0001092840109C0803C09F4A8CF883C09F435
:100AE000A5CF883B09F07FCFE091A50181E08E0F73
:100AF0008093A501F0E0EC57FE4F80818093BB000E
:100B00009091A5018091A40129C08091DF0180937B
:100B1000BB0085EC8093BC0066CF90910102809170
:100B20000002981758F5E091010281E08E0F809342
:100B30000102F0E0E052FE4F8081E9CFE091010236
:100B400081E08E0F809301028091BB00F0E0E052C3
:100B5000FE4F808390910102809100029817C8F2A5
:100B600085E8D8CFE091010281E08E0F80930102E9
:100B70008091BB00F0E0E052FE4F80838091030241
:100B800081115ECF81E08093DE0184EA8093BC0016
:100B90001092040228CF85EC8093BC0010920402CE
:100BA0008091C601803230F4E091C601F0E0EA5550
:100BB000FE4F10826091C60170E086EA91E0F0E09D
:100BC000E0E009951092C6010ECF1092020238CFD4
:100BD0001F920F920FB60F9211242F933F938F9372
:100BE0009F93EF93FF938091D5018F5F8093D50101
:100BF000809179002091CF013091D001820F932F05
:100C0000911D9093D0018093CF01EAE7F0E08081BD
:100C10001082FF91EF919F918F913F912F910F90B3
:100C20000FBE0F901F901895CF93DF9390E0FC01BB
:100C3000E951FF4F2491825F9E4FFC0184918823EC
:100C4000D1F090E0880F991FFC01E552FF4FA5916C
:100C5000B491FC01EC54FF4FC591D491623071F412
:100C60009FB7F8943C91822F809583238C93E881E1
:100C70002E2B28839FBFDF91CF9108958FB7F894D3
:100C8000EC912E2B2C938FBFF6CFCF93DF93EC01FB
:100C9000862F688399E19B831A8262E00E94140682
:100CA00088810E9463018983DF91CF910895EF923B
:100CB000FF920F931F93CF93DF9310922C02109209
:100CC0002B0288EE93E0A0E0B0E080932D02909399
:100CD0002E02A0932F02B093300289E191E090930D
:100CE0002A028093290264E086EA92E00E94450687
:100CF0006EE08AE992E00E94450660E18EE892E0AB
:100D00000E94450661E182E892E00E9445066FE09C
:100D100086E792E00E94450662E08AE00E9414069F
:100D200062E089E00E941406C8E1D1E0FE018491EE
:100D3000E82FF0E0EE0FFF1FEE5FFE4FA591B4919C
:100D4000B0934A02A093490201EF10E0F8016491C8
:100D500060934D02E7E1F1E0E491F0E0EE0FFF1F58
:100D6000EE5FFE4F2591349130934C0220934B025D
:100D7000E0EFF0E0E491E0934E0210925002109206
:100D8000510210925202109253024CE95FE0CA01E4
:100D90000197F1F79C91962381E009F480E0D90155
:100DA0009C91E92309F0826080934F0210925402D3
:100DB00090E5E92EE0925702FF24F394F092580256
:100DC00080E090E0A1E0B0E080935B0290935C0251
:100DD000A0935D02B0935E0283E090E090935A028C
:100DE000809359028AE392E09093560280935502D1
:100DF00088E080935F028091060190910701A091A5
:100E0000080180936C0290936D02A0936E02809112
:100E1000090190910A01A0910B0180936F029093B8
:100E20007002A093710210927302109272021092DB
:100E300075021092740261E088E00E948C0161E00A
:100E400080915F020E94140680E099E0ADE3B0E07B
:100E50008093600290936102A0936202B093630258
:100E6000E0925702F0925802FFB6F8948091350252
:100E7000811125C0FE01C491F8010491EC2FF0E02E
:100E8000EE0FFF1FE552FF4FA591B4918C910823FF
:100E900021F461E08AE00E948C0161E08AE00E9416
:100EA00014068CB580618CBD8CB580648CBD61E00E
:100EB0008DE00E94140661E08BE00E941406809190
:100EC00035028F5F80933502FFBE81E00E941F02D2
:100ED00080E40E9418020E94BA0180915B02909106
:100EE0005C02A0915D02B0915E02C0E0892B8A2B6A
:100EF0008B2B49F083E00E941F028FEF0E941802A3
:100F0000C82F0E94BA01F8948C2F90E0B0E0A0E0C6
:100F10008093500290935102A0935202B0935302D7
:100F2000789481EF8093800089E080938100CFEFF7
:100F3000C0938800C0938A0084B1866084B984E03D
:100F400080937B0087E280937C008FB7F8949FEEBC
:100F500090937A008FBF89E492E00E94210460930D
:100F600068027093690280936A0290936B021092F8
:100F70003E0210923D0282E080933F0284E1809322
:100F800040028CE38093410281E090E09093430221
:100F9000809342021092450210924402109246023F
:100FA000C093480289E291E090933C0280933B0217
:100FB000DF91CF911F910F91FF90EF900895CF9304
:100FC000DF9300D000D01F92CDB7DEB7789484B500
:100FD000826084BD84B5816084BD85B5826085BD35
:100FE00085B5816085BD80916E00816080936E00C3
:100FF00010928100809181008260809381008091B5
:101000008100816080938100809180008160809365
:1010100080008091B10084608093B1008091B00025
:1010200081608093B00080919100826080939100F4
:101030008091910081608093910080919000816007
:10104000809390008091A10082608093A1008091A4
:10105000A10081608093A1008091A00081608093B5
:10106000A00080917A00846080937A0080917A0059
:10107000826080937A0080917A008E7F80937A00DC
:1010800080917A00806880937A001092C10080E598
:10109000809364008DE3809365001092CD011092DF
:1010A000CC0110920602109228021092040221E054
:1010B000209303021092DE0161E082E10E948C0124
:1010C00061E083E10E948C018091B9008E7F809362
:1010D000B9008091B9008D7F8093B90080E2809340
:1010E000B80085E48093BC008091410231E03093E8
:1010F000050280932702109206021092280260E0F7
:1011000089E292E00E94BF0268E389E292E00E94D5
:10111000BF026AE070E080E090E00E94E40169E3D1
:1011200089E292E00E94BF026AE070E080E090E015
:101130000E94E40184E190E00E94EE0283E790E0E7
:101140000E94EE028EE590E00E94EE028DE690E0B5
:101150000E94EE028CE090E00E94EE0281E090E0BE
:101160000E94EE0286E090E00E94EE020E94C00023
:1011700080934702811103C041E040934602259AC3
:10118000EFE38E2E912CA12CB12CEE24E394F12CC4
:10119000DD24DA948091DC019091DD0181309105AC
:1011A00009F087C18091040190910501092E000C7E
:1011B000AA0BBB0B8093640290936502A093660216
:1011C000B093670280917A0084FF0BC180917A000E
:1011D00010927A00609164027091650280916602BB
:1011E00090916702A50194010E946A0B8091CE0143
:1011F000680F6093CE018091680290916902A0917E
:101200006A02B0916B026F330CF47AC16F53609332
:10121000CE012F5F3F4F4F4F5F4F820F931FA41F91
:10122000B51F8093680290936902A0936A02B093FD
:101230006B028091D501882309F4BAC02FB7F894C6
:101240005091D5015B838091CF019091D001609145
:10125000D50170E00E94AB0BC62E1092D501109202
:10126000D0011092CF012FBF009168021091690246
:1012700089E492E00E942104061B170B80916C0206
:10128000809F2001819F500C11243B81232F30E04F
:101290003D832C8320916E02209FC001219F900DE1
:1012A00011244C815D81849FB001859F700D949FB6
:1012B000700D1124E0917202F0917302E60FF71F96
:1012C000F0937302E09372028091D3019091D40164
:1012D0009801281B390B40916D02429FC001439F2A
:1012E000900D11246C817D810E94BF0BE40DF51DD2
:1012F000E60FF71F1093D4010093D30176E0F59524
:10130000E7957A95E1F7EC395FEFF50714F4ECE92E
:10131000FFEF9F01E536F10514F024E630E02C19CB
:10132000310980916F02829FF001839FF00D11249B
:1013300040917102429FC001439F900D11244C8146
:101340005D81849F8001859F100D949F100D112455
:101350006091740270917502060F171F1093750249
:10136000009374028091D1019091D201A901481B90
:10137000590B60917002649FC001659F900D11240C
:101380006C817D810E94BF0BE00FF11FE60FF71FFC
:101390003093D2012093D101CF01880F892F881F6C
:1013A000990BF7FDB8C0809580938800D0928A0091
:1013B00089E492E00E9421046B8380915B0290910A
:1013C0005C02A0915D02B0915E02892B8A2B8B2B6F
:1013D00041F082E00E941F028B810E9418020E944D
:1013E000BA018FB7F8942090D6013090D701409081
:1013F000D8015090D9018FBFB201A10186EA92E0D5
:101400000E949403B201A1018AE992E00E94940330
:10141000B201A1018EE892E00E949403B201A10101
:1014200082E892E00E949403B201A10186E792E073
:101430000E94940380917702811172C01092DD01A5
:101440001092DC012FB7F8948091D6019091D701CA
:10145000A091D801B091D9012FBF8B3F9105A10573
:10146000B10508F420C180914602882329F062E08A
:101470008BE392E00E94F3028091DA019091DB010C
:10148000009709F4E4C0019709F415C18091DC01CB
:101490009091DD01009709F413C18130910509F4A1
:1014A00014C1029709F0D7C033E7632E31E0732EE1
:1014B000D2C0029741F48091040190910501919569
:1014C0008195910973CE1092640210926502109278
:1014D00066021092670289E492E00E942104609300
:1014E00068027093690280936A0290936B02109273
:1014F000730210927202109275021092740262CE00
:10150000623C0CF08ACE615C6093CE0121503109BF
:101510004109510982CED092880080938A0048CF39
:101520008091A702811171C082E090E09093DD016B
:101530008093DC018091AA029091AB02A091AC0251
:10154000B091AD024091AE025091AF026091B002F5
:101550007091B102841B950BA60BB70B883E93408C
:10156000A105B10508F04CC0F092DB01E092DA0170
:1015700080919B0281115DC0F092DD01E092DC015F
:1015800080919E0290919F02A091A002B091A10231
:101590004091A2025091A3026091A4027091A50211
:1015A000841B950BA60BB70B883E9340A105B10594
:1015B000D8F5F092DB01E092DA0180918F0281117F
:1015C0000DC080910401909105018F3F4FE7940772
:1015D00029F0019690930501809304018091830284
:1015E000811130CF809104019091050182309105E5
:1015F0000CF428CF0197909305018093040122CF2A
:101600001092DB011092DA01B3CF813009F0B0CF34
:101610008091DA019091DB01892B09F0A9CF10921A
:10162000DD011092DC01A4CF1092DB011092DA01EF
:10163000C4CF813011F68091DA019091DB01892BC2
:1016400009F0BBCF1092DD011092DC01B6CF8FE222
:1016500091E09A83898389E492E00E94210440E129
:1016600050E069817A818BE392E00E9422038091AD
:101670004602882389F080913F028150990BFC013A
:10168000EE0FFF1FE80FF91FE45FFE4F6181605806
:101690008BE392E00E94F30240E150E0B3018BE360
:1016A00092E00E94220340E050E0452B09F472CD05
:1016B0000E9400006DCD20E431E03A832983CBCF36
:1016C00051E5652E51E0752EC6CF42E6642E41E00D
:1016D000742EC1CF052E97FB1EF400940E94810B3F
:1016E00057FD07D00E94890B07FC03D04EF40C94E1
:1016F000810B50954095309521953F4F4F4F5F4F4F
:10170000089590958095709561957F4F8F4F9F4F6D
:101710000895A1E21A2EAA1BBB1BFD010DC0AA1F32
:10172000BB1FEE1FFF1FA217B307E407F50720F04A
:10173000A21BB30BE40BF50B661F771F881F991FC5
:101740001A9469F760957095809590959B01AC010E
:10175000BD01CF010895AA1BBB1B51E107C0AA1F01
:10176000BB1FA617B70710F0A61BB70B881F991F42
:101770005A95A9F780959095BC01CD01089597FBE6
:10178000072E16F4009407D077FD09D00E94AB0B0A
:1017900007FC05D03EF4909581959F4F0895709574
:1017A00061957F4F0895EE0FFF1F0590F491E02D96
:0617B0000994F894FFCF3C
:1017B60017020000010002060A010A0100000000EB
:1017C600400000102000000000BF0292028B027C45
:1017D600026E026D0200000000560322031A035433
:1017E600696D653A2023233A2323204D414E2E006E
:1017F60054696D653A2023233A2323204155544FDB
:101806000052656164792E2020202020202D2D2D68
:101816002D0046696C6C696E672E202020203C2DB9
:101826002D2D0044697370656E73696E672E202DC9
:041836002D2D3E0016
:0200000002C03C
:00000001FF