:100000000C945A000C946C000C946C000C946C00D2
:100010000C946C000C946C000C946C000C946C00B0
:100020000C946C000C946C000C946C000C946C00A0
:100030000C946C000C946C000C946C000C946C0090
:100040000C946E000C946C000C946C000C946C007E
:100050000C946C000C946C000C946C000C946C0070
:100060000C946C000C946C000C946C000C946C0060
:100070000C946C000C946C000C946C000C946C0050
:100080000C946C000C946C000C946C000C946C0040
:100090000C946C000C946C000C946C000C946C0030
:1000A0000C946C000C946C000C946C000C946C0020
:1000B0000C946C0011241FBECFEFD8E0DEBFCDBF83
:1000C00021E0A0E0B1E001C01D92A930B207E1F744
:1000D0000E94B8000C9436010C9400001F920F92FD
:1000E0000FB60F9211242F933F938F939F93AF934B
:1000F000BF938091050190910601A0910701B091F5
:1001000008013091040126E0230F2D3758F502969F
:10011000A11DB11D20930401809305019093060158
:10012000A0930701B0930801809100019091010113
:10013000A0910201B09103010196A11DB11D809310
:10014000000190930101A0930201B0930301BF91BC
:10015000AF919F918F913F912F910F900FBE0F9074
:100160001F90189529E8230F0396A11DB11DD2CF2A
:10017000789484B5826084BD84B5816084BD85B582
:10018000826085BD85B5816085BD80916E0081608E
:1001900080936E0010928100809181008260809334
:1001A0008100809181008160809381008091800036
:1001B0008160809380008091B10084608093B10061
:1001C0008091B00081608093B00080919100826046
:1001D0008093910080919100816080939100809143
:1001E00090008160809390008091A1008260809354
:1001F000A1008091A10081608093A1008091A00066
:1002000081608093A00080917A00846080937A005E
:1002100080917A00826080937A0080917A008E7F4C
:1002200080937A0080917A00806880937A0010929F
:10023000C10081EA8093800089E08093810084B1CD
:10024000866084B9259AC0E2DFEF00E010E085B156
:100250008C2785B910928800D0938A0080917A000B
:1002600001151105A1F30E940000F1CFF894FFCF12
:00000001FF
